{
  "_format": "hh-sol-artifact-1",
  "contractName": "HeavenTokenUpgradeable",
  "sourceName": "contracts/token/HeavenTokenUpgradeable.sol",
  "abi": [
    {
      "inputs": [],
      "stateMutability": "nonpayable",
      "type": "constructor"
    },
    {
      "inputs": [],
      "name": "AccessControlBadConfirmation",
      "type": "error"
    },
    {
      "inputs": [
        {
          "internalType": "address",
          "name": "account",
          "type": "address"
        },
        {
          "internalType": "bytes32",
          "name": "neededRole",
          "type": "bytes32"
        }
      ],
      "name": "AccessControlUnauthorizedAccount",
      "type": "error"
    },
    {
      "inputs": [
        {
          "internalType": "address",
          "name": "target",
          "type": "address"
        }
      ],
      "name": "AddressEmptyCode",
      "type": "error"
    },
    {
      "inputs": [
        {
          "internalType": "address",
          "name": "implementation",
          "type": "address"
        }
      ],
      "name": "ERC1967InvalidImplementation",
      "type": "error"
    },
    {
      "inputs": [],
      "name": "ERC1967NonPayable",
      "type": "error"
    },
    {
      "inputs": [
        {
          "internalType": "address",
          "name": "spender",
          "type": "address"
        },
        {
          "internalType": "uint256",
          "name": "allowance",
          "type": "uint256"
        },
        {
          "internalType": "uint256",
          "name": "needed",
          "type": "uint256"
        }
      ],
      "name": "ERC20InsufficientAllowance",
      "type": "error"
    },
    {
      "inputs": [
        {
          "internalType": "address",
          "name": "sender",
          "type": "address"
        },
        {
          "internalType": "uint256",
          "name": "balance",
          "type": "uint256"
        },
        {
          "internalType": "uint256",
          "name": "needed",
          "type": "uint256"
        }
      ],
      "name": "ERC20InsufficientBalance",
      "type": "error"
    },
    {
      "inputs": [
        {
          "internalType": "address",
          "name": "approver",
          "type": "address"
        }
      ],
      "name": "ERC20InvalidApprover",
      "type": "error"
    },
    {
      "inputs": [
        {
          "internalType": "address",
          "name": "receiver",
          "type": "address"
        }
      ],
      "name": "ERC20InvalidReceiver",
      "type": "error"
    },
    {
      "inputs": [
        {
          "internalType": "address",
          "name": "sender",
          "type": "address"
        }
      ],
      "name": "ERC20InvalidSender",
      "type": "error"
    },
    {
      "inputs": [
        {
          "internalType": "address",
          "name": "spender",
          "type": "address"
        }
      ],
      "name": "ERC20InvalidSpender",
      "type": "error"
    },
    {
      "inputs": [],
      "name": "FailedCall",
      "type": "error"
    },
    {
      "inputs": [],
      "name": "InvalidInitialization",
      "type": "error"
    },
    {
      "inputs": [],
      "name": "NotInitializing",
      "type": "error"
    },
    {
      "inputs": [
        {
          "internalType": "address",
          "name": "owner",
          "type": "address"
        }
      ],
      "name": "OwnableInvalidOwner",
      "type": "error"
    },
    {
      "inputs": [
        {
          "internalType": "address",
          "name": "account",
          "type": "address"
        }
      ],
      "name": "OwnableUnauthorizedAccount",
      "type": "error"
    },
    {
      "inputs": [],
      "name": "UUPSUnauthorizedCallContext",
      "type": "error"
    },
    {
      "inputs": [
        {
          "internalType": "bytes32",
          "name": "slot",
          "type": "bytes32"
        }
      ],
      "name": "UUPSUnsupportedProxiableUUID",
      "type": "error"
    },
    {
      "anonymous": false,
      "inputs": [
        {
          "indexed": true,
          "internalType": "address",
          "name": "owner",
          "type": "address"
        },
        {
          "indexed": true,
          "internalType": "address",
          "name": "spender",
          "type": "address"
        },
        {
          "indexed": false,
          "internalType": "uint256",
          "name": "value",
          "type": "uint256"
        }
      ],
      "name": "Approval",
      "type": "event"
    },
    {
      "anonymous": false,
      "inputs": [
        {
          "indexed": false,
          "internalType": "uint64",
          "name": "version",
          "type": "uint64"
        }
      ],
      "name": "Initialized",
      "type": "event"
    },
    {
      "anonymous": false,
      "inputs": [
        {
          "indexed": true,
          "internalType": "address",
          "name": "previousOwner",
          "type": "address"
        },
        {
          "indexed": true,
          "internalType": "address",
          "name": "newOwner",
          "type": "address"
        }
      ],
      "name": "OwnershipTransferred",
      "type": "event"
    },
    {
      "anonymous": false,
      "inputs": [
        {
          "indexed": true,
          "internalType": "bytes32",
          "name": "role",
          "type": "bytes32"
        },
        {
          "indexed": true,
          "internalType": "bytes32",
          "name": "previousAdminRole",
          "type": "bytes32"
        },
        {
          "indexed": true,
          "internalType": "bytes32",
          "name": "newAdminRole",
          "type": "bytes32"
        }
      ],
      "name": "RoleAdminChanged",
      "type": "event"
    },
    {
      "anonymous": false,
      "inputs": [
        {
          "indexed": true,
          "internalType": "bytes32",
          "name": "role",
          "type": "bytes32"
        },
        {
          "indexed": true,
          "internalType": "address",
          "name": "account",
          "type": "address"
        },
        {
          "indexed": true,
          "internalType": "address",
          "name": "sender",
          "type": "address"
        }
      ],
      "name": "RoleGranted",
      "type": "event"
    },
    {
      "anonymous": false,
      "inputs": [
        {
          "indexed": true,
          "internalType": "bytes32",
          "name": "role",
          "type": "bytes32"
        },
        {
          "indexed": true,
          "internalType": "address",
          "name": "account",
          "type": "address"
        },
        {
          "indexed": true,
          "internalType": "address",
          "name": "sender",
          "type": "address"
        }
      ],
      "name": "RoleRevoked",
      "type": "event"
    },
    {
      "anonymous": false,
      "inputs": [
        {
          "indexed": true,
          "internalType": "address",
          "name": "from",
          "type": "address"
        },
        {
          "indexed": true,
          "internalType": "address",
          "name": "to",
          "type": "address"
        },
        {
          "indexed": false,
          "internalType": "uint256",
          "name": "value",
          "type": "uint256"
        }
      ],
      "name": "Transfer",
      "type": "event"
    },
    {
      "anonymous": false,
      "inputs": [
        {
          "indexed": true,
          "internalType": "address",
          "name": "implementation",
          "type": "address"
        }
      ],
      "name": "Upgraded",
      "type": "event"
    },
    {
      "inputs": [],
      "name": "DEFAULT_ADMIN_ROLE",
      "outputs": [
        {
          "internalType": "bytes32",
          "name": "",
          "type": "bytes32"
        }
      ],
      "stateMutability": "view",
      "type": "function"
    },
    {
      "inputs": [],
      "name": "MANAGER_ROLE",
      "outputs": [
        {
          "internalType": "bytes32",
          "name": "",
          "type": "bytes32"
        }
      ],
      "stateMutability": "view",
      "type": "function"
    },
    {
      "inputs": [],
      "name": "MINTER_ROLE",
      "outputs": [
        {
          "internalType": "bytes32",
          "name": "",
          "type": "bytes32"
        }
      ],
      "stateMutability": "view",
      "type": "function"
    },
    {
      "inputs": [],
      "name": "UPGRADE_INTERFACE_VERSION",
      "outputs": [
        {
          "internalType": "string",
          "name": "",
          "type": "string"
        }
      ],
      "stateMutability": "view",
      "type": "function"
    },
    {
      "inputs": [
        {
          "internalType": "address",
          "name": "owner",
          "type": "address"
        },
        {
          "internalType": "address",
          "name": "spender",
          "type": "address"
        }
      ],
      "name": "allowance",
      "outputs": [
        {
          "internalType": "uint256",
          "name": "",
          "type": "uint256"
        }
      ],
      "stateMutability": "view",
      "type": "function"
    },
    {
      "inputs": [
        {
          "internalType": "address",
          "name": "spender",
          "type": "address"
        },
        {
          "internalType": "uint256",
          "name": "value",
          "type": "uint256"
        }
      ],
      "name": "approve",
      "outputs": [
        {
          "internalType": "bool",
          "name": "",
          "type": "bool"
        }
      ],
      "stateMutability": "nonpayable",
      "type": "function"
    },
    {
      "inputs": [
        {
          "internalType": "address",
          "name": "account",
          "type": "address"
        }
      ],
      "name": "balanceOf",
      "outputs": [
        {
          "internalType": "uint256",
          "name": "",
          "type": "uint256"
        }
      ],
      "stateMutability": "view",
      "type": "function"
    },
    {
      "inputs": [],
      "name": "blacklistPolicy",
      "outputs": [
        {
          "internalType": "contract IBlacklistPolicy",
          "name": "",
          "type": "address"
        }
      ],
      "stateMutability": "view",
      "type": "function"
    },
    {
      "inputs": [],
      "name": "decimals",
      "outputs": [
        {
          "internalType": "uint8",
          "name": "",
          "type": "uint8"
        }
      ],
      "stateMutability": "view",
      "type": "function"
    },
    {
      "inputs": [],
      "name": "feeBasicPoints",
      "outputs": [
        {
          "internalType": "uint256",
          "name": "",
          "type": "uint256"
        }
      ],
      "stateMutability": "view",
      "type": "function"
    },
    {
      "inputs": [],
      "name": "feeRecipient",
      "outputs": [
        {
          "internalType": "address",
          "name": "",
          "type": "address"
        }
      ],
      "stateMutability": "view",
      "type": "function"
    },
    {
      "inputs": [
        {
          "internalType": "bytes32",
          "name": "role",
          "type": "bytes32"
        }
      ],
      "name": "getRoleAdmin",
      "outputs": [
        {
          "internalType": "bytes32",
          "name": "",
          "type": "bytes32"
        }
      ],
      "stateMutability": "view",
      "type": "function"
    },
    {
      "inputs": [
        {
          "internalType": "bytes32",
          "name": "role",
          "type": "bytes32"
        },
        {
          "internalType": "address",
          "name": "account",
          "type": "address"
        }
      ],
      "name": "grantRole",
      "outputs": [],
      "stateMutability": "nonpayable",
      "type": "function"
    },
    {
      "inputs": [
        {
          "internalType": "bytes32",
          "name": "role",
          "type": "bytes32"
        },
        {
          "internalType": "address",
          "name": "account",
          "type": "address"
        }
      ],
      "name": "hasRole",
      "outputs": [
        {
          "internalType": "bool",
          "name": "",
          "type": "bool"
        }
      ],
      "stateMutability": "view",
      "type": "function"
    },
    {
      "inputs": [
        {
          "internalType": "address",
          "name": "owner_",
          "type": "address"
        }
      ],
      "name": "initialize",
      "outputs": [],
      "stateMutability": "nonpayable",
      "type": "function"
    },
    {
      "inputs": [],
      "name": "maxFee",
      "outputs": [
        {
          "internalType": "uint256",
          "name": "",
          "type": "uint256"
        }
      ],
      "stateMutability": "view",
      "type": "function"
    },
    {
      "inputs": [
        {
          "internalType": "address",
          "name": "to",
          "type": "address"
        },
        {
          "internalType": "uint256",
          "name": "amount",
          "type": "uint256"
        }
      ],
      "name": "mint",
      "outputs": [],
      "stateMutability": "nonpayable",
      "type": "function"
    },
    {
      "inputs": [],
      "name": "name",
      "outputs": [
        {
          "internalType": "string",
          "name": "",
          "type": "string"
        }
      ],
      "stateMutability": "view",
      "type": "function"
    },
    {
      "inputs": [],
      "name": "owner",
      "outputs": [
        {
          "internalType": "address",
          "name": "",
          "type": "address"
        }
      ],
      "stateMutability": "view",
      "type": "function"
    },
    {
      "inputs": [],
      "name": "proxiableUUID",
      "outputs": [
        {
          "internalType": "bytes32",
          "name": "",
          "type": "bytes32"
        }
      ],
      "stateMutability": "view",
      "type": "function"
    },
    {
      "inputs": [],
      "name": "renounceOwnership",
      "outputs": [],
      "stateMutability": "nonpayable",
      "type": "function"
    },
    {
      "inputs": [
        {
          "internalType": "bytes32",
          "name": "role",
          "type": "bytes32"
        },
        {
          "internalType": "address",
          "name": "callerConfirmation",
          "type": "address"
        }
      ],
      "name": "renounceRole",
      "outputs": [],
      "stateMutability": "nonpayable",
      "type": "function"
    },
    {
      "inputs": [
        {
          "internalType": "bytes32",
          "name": "role",
          "type": "bytes32"
        },
        {
          "internalType": "address",
          "name": "account",
          "type": "address"
        }
      ],
      "name": "revokeRole",
      "outputs": [],
      "stateMutability": "nonpayable",
      "type": "function"
    },
    {
      "inputs": [
        {
          "internalType": "address",
          "name": "policy",
          "type": "address"
        }
      ],
      "name": "setBlacklistPolicy",
      "outputs": [],
      "stateMutability": "nonpayable",
      "type": "function"
    },
    {
      "inputs": [
        {
          "internalType": "uint256",
          "name": "newBasicPoints",
          "type": "uint256"
        },
        {
          "internalType": "uint256",
          "name": "newMaxFee",
          "type": "uint256"
        },
        {
          "internalType": "address",
          "name": "newRecipient",
          "type": "address"
        }
      ],
      "name": "setFeeParams",
      "outputs": [],
      "stateMutability": "nonpayable",
      "type": "function"
    },
    {
      "inputs": [
        {
          "internalType": "bytes4",
          "name": "interfaceId",
          "type": "bytes4"
        }
      ],
      "name": "supportsInterface",
      "outputs": [
        {
          "internalType": "bool",
          "name": "",
          "type": "bool"
        }
      ],
      "stateMutability": "view",
      "type": "function"
    },
    {
      "inputs": [],
      "name": "symbol",
      "outputs": [
        {
          "internalType": "string",
          "name": "",
          "type": "string"
        }
      ],
      "stateMutability": "view",
      "type": "function"
    },
    {
      "inputs": [],
      "name": "totalSupply",
      "outputs": [
        {
          "internalType": "uint256",
          "name": "",
          "type": "uint256"
        }
      ],
      "stateMutability": "view",
      "type": "function"
    },
    {
      "inputs": [
        {
          "internalType": "address",
          "name": "to",
          "type": "address"
        },
        {
          "internalType": "uint256",
          "name": "value",
          "type": "uint256"
        }
      ],
      "name": "transfer",
      "outputs": [
        {
          "internalType": "bool",
          "name": "",
          "type": "bool"
        }
      ],
      "stateMutability": "nonpayable",
      "type": "function"
    },
    {
      "inputs": [
        {
          "internalType": "address",
          "name": "from",
          "type": "address"
        },
        {
          "internalType": "address",
          "name": "to",
          "type": "address"
        },
        {
          "internalType": "uint256",
          "name": "value",
          "type": "uint256"
        }
      ],
      "name": "transferFrom",
      "outputs": [
        {
          "internalType": "bool",
          "name": "",
          "type": "bool"
        }
      ],
      "stateMutability": "nonpayable",
      "type": "function"
    },
    {
      "inputs": [
        {
          "internalType": "address",
          "name": "newOwner",
          "type": "address"
        }
      ],
      "name": "transferOwnership",
      "outputs": [],
      "stateMutability": "nonpayable",
      "type": "function"
    },
    {
      "inputs": [
        {
          "internalType": "address",
          "name": "newImplementation",
          "type": "address"
        },
        {
          "internalType": "bytes",
          "name": "data",
          "type": "bytes"
        }
      ],
      "name": "upgradeToAndCall",
      "outputs": [],
      "stateMutability": "payable",
      "type": "function"
    }
  ],
  "bytecode": "0x60a06040523073ffffffffffffffffffffffffffffffffffffffff1660809073ffffffffffffffffffffffffffffffffffffffff168152503480156200004457600080fd5b50620000556200005b60201b60201c565b620001ee565b60006200006d6200016560201b60201c565b90508060000160089054906101000a900460ff1615620000b9576040517ff92ee8a900000000000000000000000000000000000000000000000000000000815260040160405180910390fd5b67ffffffffffffffff80168160000160009054906101000a900467ffffffffffffffff1667ffffffffffffffff1614620001625767ffffffffffffffff8160000160006101000a81548167ffffffffffffffff021916908367ffffffffffffffff1602179055507fc7f505b2f371ae2175ee4913f4499e1f2633a7b5936321eed1cdaeb6115181d267ffffffffffffffff604051620001599190620001d1565b60405180910390a15b50565b600080620001786200018160201b60201c565b90508091505090565b60007ff0c57e16840df040f15088dc2f81fe391c3923bec73e23a9662efc9c229c6a0060001b905090565b600067ffffffffffffffff82169050919050565b620001cb81620001ac565b82525050565b6000602082019050620001e86000830184620001c0565b92915050565b6080516137ec6200021860003960008181611922015281816119770152611b3801526137ec6000f3fe6080604052600436106101e35760003560e01c80637274a84811610102578063ad3cb1cc11610095578063dd62ed3e11610064578063dd62ed3e146106e9578063ec87621c14610726578063f2fde38b14610751578063f985e5491461077a576101e3565b8063ad3cb1cc14610641578063c4d66de81461066c578063d539139314610695578063d547741f146106c0576101e3565b806395d89b41116100d157806395d89b4114610583578063a217fddf146105ae578063a572a5e8146105d9578063a9059cbb14610604576101e3565b80637274a848146104c95780637db219fb146104f25780638da5cb5b1461051b57806391d1485414610546576101e3565b8063313ce5671161017a5780634f1ef286116101495780634f1ef2861461042e57806352d1902d1461044a57806370a0823114610475578063715018a6146104b2576101e3565b8063313ce5671461038657806336568abe146103b157806340c10f19146103da5780634690484014610403576101e3565b806318160ddd116101b657806318160ddd146102b857806323b872dd146102e3578063248a9ca3146103205780632f2ff15d1461035d576101e3565b806301f59d16146101e857806301ffc9a71461021357806306fdde0314610250578063095ea7b31461027b575b600080fd5b3480156101f457600080fd5b506101fd6107a5565b60405161020a919061295b565b60405180910390f35b34801561021f57600080fd5b5061023a600480360381019061023591906129e2565b6107bd565b6040516102479190612a2a565b60405180910390f35b34801561025c57600080fd5b50610265610837565b6040516102729190612ad5565b60405180910390f35b34801561028757600080fd5b506102a2600480360381019061029d9190612b81565b6108d8565b6040516102af9190612a2a565b60405180910390f35b3480156102c457600080fd5b506102cd6108fb565b6040516102da919061295b565b60405180910390f35b3480156102ef57600080fd5b5061030a60048036038101906103059190612bc1565b610913565b6040516103179190612a2a565b60405180910390f35b34801561032c57600080fd5b5061034760048036038101906103429190612c4a565b610942565b6040516103549190612c86565b60405180910390f35b34801561036957600080fd5b50610384600480360381019061037f9190612ca1565b610970565b005b34801561039257600080fd5b5061039b610992565b6040516103a89190612cfd565b60405180910390f35b3480156103bd57600080fd5b506103d860048036038101906103d39190612ca1565b61099b565b005b3480156103e657600080fd5b5061040160048036038101906103fc9190612b81565b610a16565b005b34801561040f57600080fd5b50610418610a4f565b6040516104259190612d27565b60405180910390f35b61044860048036038101906104439190612e77565b610a87565b005b34801561045657600080fd5b5061045f610aa6565b60405161046c9190612c86565b60405180910390f35b34801561048157600080fd5b5061049c60048036038101906104979190612ed3565b610ad9565b6040516104a9919061295b565b60405180910390f35b3480156104be57600080fd5b506104c7610b30565b005b3480156104d557600080fd5b506104f060048036038101906104eb9190612ed3565b610b44565b005b3480156104fe57600080fd5b5061051960048036038101906105149190612f00565b610b95565b005b34801561052757600080fd5b50610530610d26565b60405161053d9190612d27565b60405180910390f35b34801561055257600080fd5b5061056d60048036038101906105689190612ca1565b610d5e565b60405161057a9190612a2a565b60405180910390f35b34801561058f57600080fd5b50610598610dd7565b6040516105a59190612ad5565b60405180910390f35b3480156105ba57600080fd5b506105c3610e78565b6040516105d09190612c86565b60405180910390f35b3480156105e557600080fd5b506105ee610e7f565b6040516105fb919061295b565b60405180910390f35b34801561061057600080fd5b5061062b60048036038101906106269190612b81565b610e97565b6040516106389190612a2a565b60405180910390f35b34801561064d57600080fd5b50610656610eba565b6040516106639190612ad5565b60405180910390f35b34801561067857600080fd5b50610693600480360381019061068e9190612ed3565b610ef3565b005b3480156106a157600080fd5b506106aa611259565b6040516106b79190612c86565b60405180910390f35b3480156106cc57600080fd5b506106e760048036038101906106e29190612ca1565b61127d565b005b3480156106f557600080fd5b50610710600480360381019061070b9190612f53565b61129f565b60405161071d919061295b565b60405180910390f35b34801561073257600080fd5b5061073b611334565b6040516107489190612c86565b60405180910390f35b34801561075d57600080fd5b5061077860048036038101906107739190612ed3565b611358565b005b34801561078657600080fd5b5061078f6113de565b60405161079c9190612ff2565b60405180910390f35b6000806107b0611402565b9050806001015491505090565b60007f7965db0b000000000000000000000000000000000000000000000000000000007bffffffffffffffffffffffffffffffffffffffffffffffffffffffff1916827bffffffffffffffffffffffffffffffffffffffffffffffffffffffff19161480610830575061082f8261142a565b5b9050919050565b60606000610843611494565b90508060030180546108549061303c565b80601f01602080910402602001604051908101604052809291908181526020018280546108809061303c565b80156108cd5780601f106108a2576101008083540402835291602001916108cd565b820191906000526020600020905b8154815290600101906020018083116108b057829003601f168201915b505050505091505090565b6000806108e36114bc565b90506108f08185856114c4565b600191505092915050565b600080610906611494565b9050806002015491505090565b60008061091e6114bc565b905061092b8582856114d6565b61093685858561156b565b60019150509392505050565b60008061094d61165f565b905080600001600084815260200190815260200160002060010154915050919050565b61097982610942565b61098281611687565b61098c838361169b565b50505050565b60006012905090565b6109a36114bc565b73ffffffffffffffffffffffffffffffffffffffff168173ffffffffffffffffffffffffffffffffffffffff1614610a07576040517f6697b23200000000000000000000000000000000000000000000000000000000815260040160405180910390fd5b610a11828261179c565b505050565b7f9f2df0fed2c77648de5860a4cc508cd0818c85b8b8a1ab4ceeef8d981c8956a6610a4081611687565b610a4a838361189e565b505050565b600080610a5a611402565b90508060020160009054906101000a900473ffffffffffffffffffffffffffffffffffffffff1691505090565b610a8f611920565b610a9882611a06565b610aa28282611a17565b5050565b6000610ab0611b36565b7f360894a13ba1a3210667c828492db98dca3e2076cc3735a920a3ca505d382bbc60001b905090565b600080610ae4611494565b90508060000160008473ffffffffffffffffffffffffffffffffffffffff1673ffffffffffffffffffffffffffffffffffffffff16815260200190815260200160002054915050919050565b610b38611bbd565b610b426000611c44565b565b6000801b610b5181611687565b816000806101000a81548173ffffffffffffffffffffffffffffffffffffffff021916908373ffffffffffffffffffffffffffffffffffffffff1602179055505050565b7f241ecf16d79d0f8dbfb92cbc07fe17840425976cf0667f022fe9877caa831b08610bbf81611687565b6014841115610c03576040517f08c379a0000000000000000000000000000000000000000000000000000000008152600401610bfa906130b9565b60405180910390fd5b6802b5e3af16b1880000831115610c4f576040517f08c379a0000000000000000000000000000000000000000000000000000000008152600401610c4690613125565b60405180910390fd5b600073ffffffffffffffffffffffffffffffffffffffff168273ffffffffffffffffffffffffffffffffffffffff1603610cbe576040517f08c379a0000000000000000000000000000000000000000000000000000000008152600401610cb590613191565b60405180910390fd5b6000610cc8611402565b9050848160000181905550838160010181905550828160020160006101000a81548173ffffffffffffffffffffffffffffffffffffffff021916908373ffffffffffffffffffffffffffffffffffffffff1602179055505050505050565b600080610d31611d1b565b90508060000160009054906101000a900473ffffffffffffffffffffffffffffffffffffffff1691505090565b600080610d6961165f565b905080600001600085815260200190815260200160002060000160008473ffffffffffffffffffffffffffffffffffffffff1673ffffffffffffffffffffffffffffffffffffffff16815260200190815260200160002060009054906101000a900460ff1691505092915050565b60606000610de3611494565b9050806004018054610df49061303c565b80601f0160208091040260200160405190810160405280929190818152602001828054610e209061303c565b8015610e6d5780601f10610e4257610100808354040283529160200191610e6d565b820191906000526020600020905b815481529060010190602001808311610e5057829003601f168201915b505050505091505090565b6000801b81565b600080610e8a611402565b9050806000015491505090565b600080610ea26114bc565b9050610eaf81858561156b565b600191505092915050565b6040518060400160405280600581526020017f352e302e3000000000000000000000000000000000000000000000000000000081525081565b6000610efd611d43565b905060008160000160089054906101000a900460ff1615905060008260000160009054906101000a900467ffffffffffffffff1690506000808267ffffffffffffffff16148015610f4b5750825b9050600060018367ffffffffffffffff16148015610f80575060003073ffffffffffffffffffffffffffffffffffffffff163b145b905081158015610f8e575080155b15610fc5576040517ff92ee8a900000000000000000000000000000000000000000000000000000000815260040160405180910390fd5b60018560000160006101000a81548167ffffffffffffffff021916908367ffffffffffffffff16021790555083156110155760018560000160086101000a81548160ff0219169083151502179055505b6110896040518060400160405280600c81526020017f48656176656e20546f6b656e00000000000000000000000000000000000000008152506040518060400160405280600381526020017f48564e0000000000000000000000000000000000000000000000000000000000815250611d57565b61109286611d6d565b61109a611d81565b6110a2611d8b565b6110b68669d3c21bcecceda100000061189e565b6110c36000801b8761169b565b506110ee7f241ecf16d79d0f8dbfb92cbc07fe17840425976cf0667f022fe9877caa831b088761169b565b506111197f9f2df0fed2c77648de5860a4cc508cd0818c85b8b8a1ab4ceeef8d981c8956a68761169b565b506111647f9f2df0fed2c77648de5860a4cc508cd0818c85b8b8a1ab4ceeef8d981c8956a67f241ecf16d79d0f8dbfb92cbc07fe17840425976cf0667f022fe9877caa831b08611d95565b6111917f241ecf16d79d0f8dbfb92cbc07fe17840425976cf0667f022fe9877caa831b086000801b611d95565b600061119b611402565b90506000816000018190555060008160010181905550868160020160006101000a81548173ffffffffffffffffffffffffffffffffffffffff021916908373ffffffffffffffffffffffffffffffffffffffff1602179055505083156112515760008560000160086101000a81548160ff0219169083151502179055507fc7f505b2f371ae2175ee4913f4499e1f2633a7b5936321eed1cdaeb6115181d260016040516112489190613200565b60405180910390a15b505050505050565b7f9f2df0fed2c77648de5860a4cc508cd0818c85b8b8a1ab4ceeef8d981c8956a681565b61128682610942565b61128f81611687565b611299838361179c565b50505050565b6000806112aa611494565b90508060010160008573ffffffffffffffffffffffffffffffffffffffff1673ffffffffffffffffffffffffffffffffffffffff16815260200190815260200160002060008473ffffffffffffffffffffffffffffffffffffffff1673ffffffffffffffffffffffffffffffffffffffff1681526020019081526020016000205491505092915050565b7f241ecf16d79d0f8dbfb92cbc07fe17840425976cf0667f022fe9877caa831b0881565b611360611bbd565b600073ffffffffffffffffffffffffffffffffffffffff168173ffffffffffffffffffffffffffffffffffffffff16036113d25760006040517f1e4fbdf70000000000000000000000000000000000000000000000000000000081526004016113c99190612d27565b60405180910390fd5b6113db81611c44565b50565b60008054906101000a900473ffffffffffffffffffffffffffffffffffffffff1681565b60007f50cbf6fc8018fbfe33db73a52a271591b3d4c79a138d69fd06280ca6aa8c5900905090565b60007f01ffc9a7000000000000000000000000000000000000000000000000000000007bffffffffffffffffffffffffffffffffffffffffffffffffffffffff1916827bffffffffffffffffffffffffffffffffffffffffffffffffffffffff1916149050919050565b60007f52c63247e1f47db19d5ce0460030c497f067ca4cebf71ba98eeadabe20bace00905090565b600033905090565b6114d18383836001611e00565b505050565b60006114e2848461129f565b90507fffffffffffffffffffffffffffffffffffffffffffffffffffffffffffffffff8110156115655781811015611555578281836040517ffb8f41b200000000000000000000000000000000000000000000000000000000815260040161154c9392919061321b565b60405180910390fd5b61156484848484036000611e00565b5b50505050565b600073ffffffffffffffffffffffffffffffffffffffff168373ffffffffffffffffffffffffffffffffffffffff16036115dd5760006040517f96c6fd1e0000000000000000000000000000000000000000000000000000000081526004016115d49190612d27565b60405180910390fd5b600073ffffffffffffffffffffffffffffffffffffffff168273ffffffffffffffffffffffffffffffffffffffff160361164f5760006040517fec442f050000000000000000000000000000000000000000000000000000000081526004016116469190612d27565b60405180910390fd5b61165a838383611fe6565b505050565b60007f02dd7bc7dec4dceedda775e58dd541e08a116c6c53815c0bd028192f7b626800905090565b611698816116936114bc565b61222f565b50565b6000806116a661165f565b90506116b28484610d5e565b61179057600181600001600086815260200190815260200160002060000160008573ffffffffffffffffffffffffffffffffffffffff1673ffffffffffffffffffffffffffffffffffffffff16815260200190815260200160002060006101000a81548160ff02191690831515021790555061172c6114bc565b73ffffffffffffffffffffffffffffffffffffffff168373ffffffffffffffffffffffffffffffffffffffff16857f2f8788117e7eff1d82e926ec794901d17c78024a50270940304540a733656f0d60405160405180910390a46001915050611796565b60009150505b92915050565b6000806117a761165f565b90506117b38484610d5e565b1561189257600081600001600086815260200190815260200160002060000160008573ffffffffffffffffffffffffffffffffffffffff1673ffffffffffffffffffffffffffffffffffffffff16815260200190815260200160002060006101000a81548160ff02191690831515021790555061182e6114bc565b73ffffffffffffffffffffffffffffffffffffffff168373ffffffffffffffffffffffffffffffffffffffff16857ff6391f5c32d9c69d2a47ea670b442974b53935d1edc7fd64eb21e047a839171b60405160405180910390a46001915050611898565b60009150505b92915050565b600073ffffffffffffffffffffffffffffffffffffffff168273ffffffffffffffffffffffffffffffffffffffff16036119105760006040517fec442f050000000000000000000000000000000000000000000000000000000081526004016119079190612d27565b60405180910390fd5b61191c60008383611fe6565b5050565b7f000000000000000000000000000000000000000000000000000000000000000073ffffffffffffffffffffffffffffffffffffffff163073ffffffffffffffffffffffffffffffffffffffff1614806119cd57507f000000000000000000000000000000000000000000000000000000000000000073ffffffffffffffffffffffffffffffffffffffff166119b4612280565b73ffffffffffffffffffffffffffffffffffffffff1614155b15611a04576040517fe07c8dba00000000000000000000000000000000000000000000000000000000815260040160405180910390fd5b565b6000801b611a1381611687565b5050565b8173ffffffffffffffffffffffffffffffffffffffff166352d1902d6040518163ffffffff1660e01b8152600401602060405180830381865afa925050508015611a7f57506040513d601f19601f82011682018060405250810190611a7c9190613267565b60015b611ac057816040517f4c9c8ce3000000000000000000000000000000000000000000000000000000008152600401611ab79190612d27565b60405180910390fd5b7f360894a13ba1a3210667c828492db98dca3e2076cc3735a920a3ca505d382bbc60001b8114611b2757806040517faa1d49a4000000000000000000000000000000000000000000000000000000008152600401611b1e9190612c86565b60405180910390fd5b611b3183836122d7565b505050565b7f000000000000000000000000000000000000000000000000000000000000000073ffffffffffffffffffffffffffffffffffffffff163073ffffffffffffffffffffffffffffffffffffffff1614611bbb576040517fe07c8dba00000000000000000000000000000000000000000000000000000000815260040160405180910390fd5b565b611bc56114bc565b73ffffffffffffffffffffffffffffffffffffffff16611be3610d26565b73ffffffffffffffffffffffffffffffffffffffff1614611c4257611c066114bc565b6040517f118cdaa7000000000000000000000000000000000000000000000000000000008152600401611c399190612d27565b60405180910390fd5b565b6000611c4e611d1b565b905060008160000160009054906101000a900473ffffffffffffffffffffffffffffffffffffffff169050828260000160006101000a81548173ffffffffffffffffffffffffffffffffffffffff021916908373ffffffffffffffffffffffffffffffffffffffff1602179055508273ffffffffffffffffffffffffffffffffffffffff168173ffffffffffffffffffffffffffffffffffffffff167f8be0079c531659141344cd1fd0a4f28419497f9722a3daafe3b4186f6b6457e060405160405180910390a3505050565b60007f9016d09d72d40fdae2fd8ceac6b6234c7706214fd39c1cd1e609a0528c199300905090565b600080611d4e61234a565b90508091505090565b611d5f612375565b611d6982826123b5565b5050565b611d75612375565b611d7e816123f2565b50565b611d89612375565b565b611d93612375565b565b6000611d9f61165f565b90506000611dac84610942565b905082826000016000868152602001908152602001600020600101819055508281857fbd79b86ffe0ab8e8776151514217cd7cacd52c909f66475c3af44e129f0b00ff60405160405180910390a450505050565b6000611e0a611494565b9050600073ffffffffffffffffffffffffffffffffffffffff168573ffffffffffffffffffffffffffffffffffffffff1603611e7e5760006040517fe602df05000000000000000000000000000000000000000000000000000000008152600401611e759190612d27565b60405180910390fd5b600073ffffffffffffffffffffffffffffffffffffffff168473ffffffffffffffffffffffffffffffffffffffff1603611ef05760006040517f94280d62000000000000000000000000000000000000000000000000000000008152600401611ee79190612d27565b60405180910390fd5b828160010160008773ffffffffffffffffffffffffffffffffffffffff1673ffffffffffffffffffffffffffffffffffffffff16815260200190815260200160002060008673ffffffffffffffffffffffffffffffffffffffff1673ffffffffffffffffffffffffffffffffffffffff168152602001908152602001600020819055508115611fdf578373ffffffffffffffffffffffffffffffffffffffff168573ffffffffffffffffffffffffffffffffffffffff167f8c5be1e5ebec7d5bd14f71427d1e84f3dd0314c0f7b2291e5b200ac8c7c3b92585604051611fd6919061295b565b60405180910390a35b5050505050565b600073ffffffffffffffffffffffffffffffffffffffff1660008054906101000a900473ffffffffffffffffffffffffffffffffffffffff1673ffffffffffffffffffffffffffffffffffffffff16146121175760008054906101000a900473ffffffffffffffffffffffffffffffffffffffff1673ffffffffffffffffffffffffffffffffffffffff166386c58d3e84846040518363ffffffff1660e01b8152600401612095929190613294565b602060405180830381865afa1580156120b2573d6000803e3d6000fd5b505050506040513d601f19601f820116820180604052508101906120d691906132e9565b15612116576040517f08c379a000000000000000000000000000000000000000000000000000000000815260040161210d90613362565b60405180910390fd5b5b6000612121611402565b9050600073ffffffffffffffffffffffffffffffffffffffff168473ffffffffffffffffffffffffffffffffffffffff16148061218a5750600073ffffffffffffffffffffffffffffffffffffffff168373ffffffffffffffffffffffffffffffffffffffff16145b156121a05761219a848484612478565b5061222a565b60006127108260000154846121b591906133b1565b6121bf9190613422565b905081600101548111156121d557816001015490505b600081111561221c5761220d858360020160009054906101000a900473ffffffffffffffffffffffffffffffffffffffff1683612478565b80836122199190613453565b92505b612227858585612478565b50505b505050565b6122398282610d5e565b61227c5780826040517fe2517d3f000000000000000000000000000000000000000000000000000000008152600401612273929190613487565b60405180910390fd5b5050565b60006122ae7f360894a13ba1a3210667c828492db98dca3e2076cc3735a920a3ca505d382bbc60001b6126b7565b60000160009054906101000a900473ffffffffffffffffffffffffffffffffffffffff16905090565b6122e0826126c1565b8173ffffffffffffffffffffffffffffffffffffffff167fbc7cd75a20ee27fd9adebab32041f755214dbc6bffa90cc0225b39da2e5c2d3b60405160405180910390a260008151111561233d57612337828261278e565b50612346565b612345612812565b5b5050565b60007ff0c57e16840df040f15088dc2f81fe391c3923bec73e23a9662efc9c229c6a0060001b905090565b61237d61284f565b6123b3576040517fd7e6bcf800000000000000000000000000000000000000000000000000000000815260040160405180910390fd5b565b6123bd612375565b60006123c7611494565b9050828160030190816123da9190613652565b50818160040190816123ec9190613652565b50505050565b6123fa612375565b600073ffffffffffffffffffffffffffffffffffffffff168173ffffffffffffffffffffffffffffffffffffffff160361246c5760006040517f1e4fbdf70000000000000000000000000000000000000000000000000000000081526004016124639190612d27565b60405180910390fd5b61247581611c44565b50565b6000612482611494565b9050600073ffffffffffffffffffffffffffffffffffffffff168473ffffffffffffffffffffffffffffffffffffffff16036124d857818160020160008282546124cc9190613724565b925050819055506125b1565b60008160000160008673ffffffffffffffffffffffffffffffffffffffff1673ffffffffffffffffffffffffffffffffffffffff16815260200190815260200160002054905082811015612567578481846040517fe450d38c00000000000000000000000000000000000000000000000000000000815260040161255e9392919061321b565b60405180910390fd5b8281038260000160008773ffffffffffffffffffffffffffffffffffffffff1673ffffffffffffffffffffffffffffffffffffffff16815260200190815260200160002081905550505b600073ffffffffffffffffffffffffffffffffffffffff168373ffffffffffffffffffffffffffffffffffffffff16036125fc5781816002016000828254039250508190555061264c565b818160000160008573ffffffffffffffffffffffffffffffffffffffff1673ffffffffffffffffffffffffffffffffffffffff168152602001908152602001600020600082825401925050819055505b8273ffffffffffffffffffffffffffffffffffffffff168473ffffffffffffffffffffffffffffffffffffffff167fddf252ad1be2c89b69c2b068fc378daa952ba7f163c4a11628f55a4df523b3ef846040516126a9919061295b565b60405180910390a350505050565b6000819050919050565b60008173ffffffffffffffffffffffffffffffffffffffff163b0361271d57806040517f4c9c8ce30000000000000000000000000000000000000000000000000000000081526004016127149190612d27565b60405180910390fd5b8061274a7f360894a13ba1a3210667c828492db98dca3e2076cc3735a920a3ca505d382bbc60001b6126b7565b60000160006101000a81548173ffffffffffffffffffffffffffffffffffffffff021916908373ffffffffffffffffffffffffffffffffffffffff16021790555050565b60606000808473ffffffffffffffffffffffffffffffffffffffff16846040516127b8919061379f565b600060405180830381855af49150503d80600081146127f3576040519150601f19603f3d011682016040523d82523d6000602084013e6127f8565b606091505b509150915061280885838361286f565b9250505092915050565b600034111561284d576040517fb398979f00000000000000000000000000000000000000000000000000000000815260040160405180910390fd5b565b6000612859611d43565b60000160089054906101000a900460ff16905090565b6060826128845761287f826128fe565b6128f6565b600082511480156128ac575060008473ffffffffffffffffffffffffffffffffffffffff163b145b156128ee57836040517f9996b3150000000000000000000000000000000000000000000000000000000081526004016128e59190612d27565b60405180910390fd5b8190506128f7565b5b9392505050565b60008151111561291057805160208201fd5b6040517fd6bda27500000000000000000000000000000000000000000000000000000000815260040160405180910390fd5b6000819050919050565b61295581612942565b82525050565b6000602082019050612970600083018461294c565b92915050565b6000604051905090565b600080fd5b600080fd5b60007fffffffff0000000000000000000000000000000000000000000000000000000082169050919050565b6129bf8161298a565b81146129ca57600080fd5b50565b6000813590506129dc816129b6565b92915050565b6000602082840312156129f8576129f7612980565b5b6000612a06848285016129cd565b91505092915050565b60008115159050919050565b612a2481612a0f565b82525050565b6000602082019050612a3f6000830184612a1b565b92915050565b600081519050919050565b600082825260208201905092915050565b60005b83811015612a7f578082015181840152602081019050612a64565b60008484015250505050565b6000601f19601f8301169050919050565b6000612aa782612a45565b612ab18185612a50565b9350612ac1818560208601612a61565b612aca81612a8b565b840191505092915050565b60006020820190508181036000830152612aef8184612a9c565b905092915050565b600073ffffffffffffffffffffffffffffffffffffffff82169050919050565b6000612b2282612af7565b9050919050565b612b3281612b17565b8114612b3d57600080fd5b50565b600081359050612b4f81612b29565b92915050565b612b5e81612942565b8114612b6957600080fd5b50565b600081359050612b7b81612b55565b92915050565b60008060408385031215612b9857612b97612980565b5b6000612ba685828601612b40565b9250506020612bb785828601612b6c565b9150509250929050565b600080600060608486031215612bda57612bd9612980565b5b6000612be886828701612b40565b9350506020612bf986828701612b40565b9250506040612c0a86828701612b6c565b9150509250925092565b6000819050919050565b612c2781612c14565b8114612c3257600080fd5b50565b600081359050612c4481612c1e565b92915050565b600060208284031215612c6057612c5f612980565b5b6000612c6e84828501612c35565b91505092915050565b612c8081612c14565b82525050565b6000602082019050612c9b6000830184612c77565b92915050565b60008060408385031215612cb857612cb7612980565b5b6000612cc685828601612c35565b9250506020612cd785828601612b40565b9150509250929050565b600060ff82169050919050565b612cf781612ce1565b82525050565b6000602082019050612d126000830184612cee565b92915050565b612d2181612b17565b82525050565b6000602082019050612d3c6000830184612d18565b92915050565b600080fd5b600080fd5b7f4e487b7100000000000000000000000000000000000000000000000000000000600052604160045260246000fd5b612d8482612a8b565b810181811067ffffffffffffffff82111715612da357612da2612d4c565b5b80604052505050565b6000612db6612976565b9050612dc28282612d7b565b919050565b600067ffffffffffffffff821115612de257612de1612d4c565b5b612deb82612a8b565b9050602081019050919050565b82818337600083830152505050565b6000612e1a612e1584612dc7565b612dac565b905082815260208101848484011115612e3657612e35612d47565b5b612e41848285612df8565b509392505050565b600082601f830112612e5e57612e5d612d42565b5b8135612e6e848260208601612e07565b91505092915050565b60008060408385031215612e8e57612e8d612980565b5b6000612e9c85828601612b40565b925050602083013567ffffffffffffffff811115612ebd57612ebc612985565b5b612ec985828601612e49565b9150509250929050565b600060208284031215612ee957612ee8612980565b5b6000612ef784828501612b40565b91505092915050565b600080600060608486031215612f1957612f18612980565b5b6000612f2786828701612b6c565b9350506020612f3886828701612b6c565b9250506040612f4986828701612b40565b9150509250925092565b60008060408385031215612f6a57612f69612980565b5b6000612f7885828601612b40565b9250506020612f8985828601612b40565b9150509250929050565b6000819050919050565b6000612fb8612fb3612fae84612af7565b612f93565b612af7565b9050919050565b6000612fca82612f9d565b9050919050565b6000612fdc82612fbf565b9050919050565b612fec81612fd1565b82525050565b60006020820190506130076000830184612fe3565b92915050565b7f4e487b7100000000000000000000000000000000000000000000000000000000600052602260045260246000fd5b6000600282049050600182168061305457607f821691505b6020821081036130675761306661300d565b5b50919050565b7f66656520746f6f20686967680000000000000000000000000000000000000000600082015250565b60006130a3600c83612a50565b91506130ae8261306d565b602082019050919050565b600060208201905081810360008301526130d281613096565b9050919050565b7f6d61782066656520746f6f206869676800000000000000000000000000000000600082015250565b600061310f601083612a50565b915061311a826130d9565b602082019050919050565b6000602082019050818103600083015261313e81613102565b9050919050565b7f696e76616c69642066656520726563697069656e740000000000000000000000600082015250565b600061317b601583612a50565b915061318682613145565b602082019050919050565b600060208201905081810360008301526131aa8161316e565b9050919050565b6000819050919050565b600067ffffffffffffffff82169050919050565b60006131ea6131e56131e0846131b1565b612f93565b6131bb565b9050919050565b6131fa816131cf565b82525050565b600060208201905061321560008301846131f1565b92915050565b60006060820190506132306000830186612d18565b61323d602083018561294c565b61324a604083018461294c565b949350505050565b60008151905061326181612c1e565b92915050565b60006020828403121561327d5761327c612980565b5b600061328b84828501613252565b91505092915050565b60006040820190506132a96000830185612d18565b6132b66020830184612d18565b9392505050565b6132c681612a0f565b81146132d157600080fd5b50565b6000815190506132e3816132bd565b92915050565b6000602082840312156132ff576132fe612980565b5b600061330d848285016132d4565b91505092915050565b7f5452414e534645525f424c4f434b45445f42595f504f4c494359000000000000600082015250565b600061334c601a83612a50565b915061335782613316565b602082019050919050565b6000602082019050818103600083015261337b8161333f565b9050919050565b7f4e487b7100000000000000000000000000000000000000000000000000000000600052601160045260246000fd5b60006133bc82612942565b91506133c783612942565b92508282026133d581612942565b915082820484148315176133ec576133eb613382565b5b5092915050565b7f4e487b7100000000000000000000000000000000000000000000000000000000600052601260045260246000fd5b600061342d82612942565b915061343883612942565b925082613448576134476133f3565b5b828204905092915050565b600061345e82612942565b915061346983612942565b925082820390508181111561348157613480613382565b5b92915050565b600060408201905061349c6000830185612d18565b6134a96020830184612c77565b9392505050565b60008190508160005260206000209050919050565b60006020601f8301049050919050565b600082821b905092915050565b6000600883026135127fffffffffffffffffffffffffffffffffffffffffffffffffffffffffffffffff826134d5565b61351c86836134d5565b95508019841693508086168417925050509392505050565b600061354f61354a61354584612942565b612f93565b612942565b9050919050565b6000819050919050565b61356983613534565b61357d61357582613556565b8484546134e2565b825550505050565b600090565b613592613585565b61359d818484613560565b505050565b5b818110156135c1576135b660008261358a565b6001810190506135a3565b5050565b601f821115613606576135d7816134b0565b6135e0846134c5565b810160208510156135ef578190505b6136036135fb856134c5565b8301826135a2565b50505b505050565b600082821c905092915050565b60006136296000198460080261360b565b1980831691505092915050565b60006136428383613618565b9150826002028217905092915050565b61365b82612a45565b67ffffffffffffffff81111561367457613673612d4c565b5b61367e825461303c565b6136898282856135c5565b600060209050601f8311600181146136bc57600084156136aa578287015190505b6136b48582613636565b86555061371c565b601f1984166136ca866134b0565b60005b828110156136f2578489015182556001820191506020850194506020810190506136cd565b8683101561370f578489015161370b601f891682613618565b8355505b6001600288020188555050505b505050505050565b600061372f82612942565b915061373a83612942565b925082820190508082111561375257613751613382565b5b92915050565b600081519050919050565b600081905092915050565b600061377982613758565b6137838185613763565b9350613793818560208601612a61565b80840191505092915050565b60006137ab828461376e565b91508190509291505056fea2646970667358221220e0926b31333fdbd231416d1191e6c05f7cc3a7a96c5cc20d48aff02b289ce9be64736f6c63430008180033",
  "linkReferences": {},
  "deployedLinkReferences": {}
}